:0300000002029B5E
:0C029B00787FE4F6D8FD7581EE0202E2E7
:0C0B9500010802010914010AE8010B909C
:100B0D00E4F50DC293D292D291C206C205C207F589
:080B1D0013F514F515F5122281
:0A0BC400758901758CFC758A1822F2
:070BDF00D2AFD2A9D2A82277
:100B2500E4FFE4FEEF75F008A424662EF876FF0EC8
:070B3500BE08F10FBF10EB39
:010B3C002296
:1007C000120B0D120BC4120BDF120B25120B6D7BDB
:1007D000007A0079667D80120B557B007A0079667D
:1007E0007D08120BCE752800752900752A13752B0C
:1007F00000752C00752D0D7B007A0079667D8012C6
:030800000AD522F4
:0100060022D7
:03000B000204816B
:10048100C0E0C0F0C083C082C0D075D000C000C041
:0D04910001C002C003C004C005C006C007C2
:10049E00D50806750802120A4FD5090675091412F9
:1004AE000BB5D50A06750AE812000ED50B09750BA9
:0704BE009030060312000656
:1004C500D007D006D005D004D003D002D001D0008B
:0B04D500D0D0D082D083D0F0D0E03235
:1009D200EF1460111460151460192403701BC29384
:1009E200D292D29122D293C292D29122D293D29215
:0A09F200C29122C293C293C2932265
:03000300020AB638
:100AB600C0E0C0D075D000C007050DE50DB4040335
:0F0AC600750D00AF0D1209D2D007D0D0D0E0329D
:100B3D0030080B0512E512B4030DE4F51222E5128F
:080B4D0070037512031512225A
:10053D0030082DE51214601214601A2402704A0559
:10054D0013E51364187042F513220514E514643C89
:10055D007037F514220515E515643C702CF5152240
:10056D00E5121460111460182402701DE513700358
:10057D00751317151322E514700375143B1514220A
:0A058D00E515700375153B151522E6
:1003A5008D24EF14B4070050649003BC75F003A4CA
:1003B500C58325F0C583730204010203E002040925
:1003C5000203D10203F80203F00203DA300603C286
:1003D5000622D20622300635C20622E50D70093006
:1003E5000703C20722D20722C20622E50D701ED2DC
:1003F500088006E50D7016C20802053DE50D700D75
:0E040500C2088006E50D7005D208120B3D22DC
:070BE600300603850E10220A
:10069900E51375F00A84F524E51375F00A8485F0ED
:1006A9002575260AE51475F00A84F527E51475F011
:1006B9000A8485F02875290AE51575F00A84F52A52
:1006C900E51575F00A8485F02B7B007A007924E41E
:0B06D900F530F531F5327D0812077C8A
:0106E40022F3
:100948007B007A007966C2087D801208037B007AF2
:100958000079667D80120B83EFD394004003E4F5A1
:0E0968000D7B007A007966D2087D80120803AC
:01097600225E
:100A9600E50D14600F14600C14600E2403700D1223
:100AA6000BE68008120699800312094812091822DB
:1009FC00E4F5227523031207C075270075280075CE
:100A0C0029237B007A0079221209A5E5226006AD24
:0A0A1C0023FF1203A5120A9680DFE3
:1001EB00FFFFFF8313111139393911111383FFFFEE
:1001FB00FFFFFFE7C78787E7E7E7E7E7E7E7FFFFEC
:10020B00FFFFFF831119F9F1E3E3C78F1F01FFFF15
:10021B00FFFFFF831311F1F3C3F1F9111183FFFFFB
:10022B00FFFFFFE3E3C3C383032301E3E3E3FFFF29
:10023B00FFFFFF819F1F1F0311F1F9111183FFFFB7
:10024B00FFFFFF8391113F03111139111183FFFF41
:10025B00FFFFFF01F1E3E3C7C7CF8F8F8F8FFFFF47
:10026B00FFFFFF8313111111831139391183FFFF25
:10027B00FFFFFF83131139111181F9111383FFFF55
:10028B00FFFFFFFFC3C3C3FFFFC3C3C3FFFFFFFFDB
:090BCE008B5E8A5F89608D612253
:0100070022D6
:020413008B5507
:10041500755600755700755800EF131313541FFCDC
:10042500EF5407F559AF05E5618FF0A4AD047C00E5
:100435002DFFEC35F0FEE5602FF9E55F3E855E5654
:10044500F5578958E5557018AB56AA5712011CFF88
:10045500AE597480A806088002C313D8FC4F8018D3
:10046500AB56AA57A95812011CFFAE597480A806AD
:0B047500088002C313D8FC6F1201B70F
:010480002259
:040A75008F418D42DE
:100A79008B46854447AB45AD47AF4612041315462F
:0C0A8900E546B541F01547E547B542E9E8
:010A9500223E
:040647008F168D1766
:10064B00C3EB9516F51BC3E5199517F51CE51BD3E5
:10065B00951C4004AF1B8002AF1C8F1D851D1EE532
:10066B001B851EF0A4FFE516851DF0A42F851DF03C
:10067B0084FFE51C851EF0A4FEE517851DF0A42E56
:0D068B00851DF084FDAB1A120413D51ED29C
:01069800223F
:020327008F360F
:10032900ED131313541FF53B8B3AE53AC394105060
:080339006AE53AC39410506319
:10034100E536C454F024EBF582E43401F583E5820B
:10035100253AF582E43583F583E493F53CE539B438
:100361000123E561853AF0A47C00253BFFEC35F0E3
:10037100FEAB5EE5602FF9E55F3EFA12011C653CBC
:100381001201B7801AE561853AF0A4253BF582E4B4
:0F03910035F0F583AB5EAA5FA960E53C1201C9A8
:0403A000053A808F0B
:0103A4002236
:08077C008B2C8A2D892E8D2F94
:10078400853033853134E4F535E533C39440502B5B
:10079400E535C3952F5024AB2CAA2DA92E8535827F
:1007A400758300120135FF853239AB34AD33120342
:0B07B4002774082533F533053580CE8F
:0107BF002217
:1008E8008F5A8D5B8B5CC3E55A955CFFE55A255C96
:1008F800FB855B19855D1A120647C3E55B955CFDB0
:10090800E55B255CF519855D1AAB5AAF5A020647B7
:100AD50078E6A60308A60208A6018D4885284C8558
:0F0AE500294D852A4E852B49852C4A852D4B227C
:10000E00E54B6401454AAB4CAA4DA94E700302055F
:05001E00971204E0222E
:100597009000027401120184900002120135643C3C
:1005A70070459000021201C9900001740112018484
:1005B700900001120135643C702D9000011201C9B1
:1005C700740112016212011CB4181C900002E4129B
:1005D70001C9900001E41201C9E41201B7C2907F7A
:0805E70001FE120BA5D29022C7
:1004E0008B3D8A3E893F900002120135704090009A
:1004F00001120135702212011C700AC2907F01FEA8
:10050000120BA5D290AB3DAA3EA93F74FF12016227
:10051000900001743B1201C9AB3DAA3EA93F900077
:100520000174FF120184900002743B1201C9AB3DBB
:0D053000AA3EA93F90000274FF1201842230
:0F0BA500E4FD0DBDFAFCEF1F70011E144E70F140
:010BB400221E
:080BD7000604070301000205FA
:030BA100016200EE
:100B5500C2A0D294C2B378E9A60308A60208A601EA
:080B65008D63D208120803227F
:0605EF008B268A278928F3
:1005F500752908E4F52A752B01782C7C00FD7BFF15
:100605007A0B79D7FE7F081200F6C2D7AB26AA2748
:10061500A92812011CFF742B2529F8E6FEE52BA855
:1006250006088002C333D8FC5FFFA806088002C312
:1006350013D8FCFFE52A25E02FF52AD529CC120190
:01064500B7FD
:010646002291
:10091800E4F524F525C3E52595637480F8652498E6
:10092800501D78E9860308E6FA08E62525F9EA3530
:0F09380024FA1205EF0525E52570DA052480D68F
:01094700228D
:100A4F00E56275F008A4FF78E9860308E6FA08E680
:100A5F002FF9EA35F0FAAD62120AF40562E562B4D5
:050A6F001003E4F56234
:010A7400225F
:100AF4008D3DD2A07D0812087CC294D2B3D294C298
:090B0400B3AF3D120A26C2A02283
:100A2600EF30E003D38001C392A4EF30E103D3801B
:100A360001C392A3EF30E203D38001C392A2EF3049
:090A4600E303D38001C392A12255
:100B6D00E4F551F552F54FF554F550C204C200C2EB
:060B7D0003C202C20122C6
:0F0BB5001206E5E551B552030209771208B62280
:0609A5008B248A2589263F
:1009AB00120841782A7C007D007E007F021200F63F
:1009BB00AB24AA25A926E52B1201B7AB27AA28A998
:0609CB0029E52A1201B724
:0109D1002203
:1006E500855251E58044802441603524E06027240B
:1006F500F0601924F8601024FC602024FD601204C9
:1007050070237552018021755202801C7552038039
:10071500177552048012755205800D7552068008B2
:0C0725007552078003E4F552E4FEFF2249
:10097700E5527020E5547016E5507002800C300285
:10098700028007E553B40115D204855453228554D8
:0E09970053155422E5507003D2002215502251
:1008B600E552700785514F75540A22A2029209C269
:1008C60002D201E550700475506422755064E554F7
:1008D600600FE552B54F08200907D202D20322D293
:0108E600040D
:0108E70022EE
:10084100300407C204E4F52C800830030AC20375A2
:100851002C01854F2D801D300014C200200105752B
:100861002C038010752C0285522DC2018006752C37
:0A08710003752DFF7B007A00792C3F
:01087B00225A
:03002300020731A0
:10073100C0E0C083C082C0D075D000C000C001C07D
:1007410002C003C007309820C298E565656460184F
:1007510078EC860308E6FA08E6F9AF6505658F824D
:10076100758300E5991201C9D007D003D002D001E9
:0B077100D000D0D0D082D083D0E03286
:100B8300E565C395644005ED956550037F0022AF8D
:020B93006422DA
:06087C008B3E8A3F89401B
:10088200E4FFEFC39D502BAB3EAA3FA9408F827578
:100892008300120135F59974FFFBFA209909EB1BCD
:1008A20070011A144A70F4C299EB4A7002C3220F03
:0308B20080D0D320
:0108B5002220
:1008030078ECA60308A60208A6018D64E4F565301A
:100813000808759810C2ACC2BC22C2ACC2CAE4F5C7
:1008230087F5C975C83075985075CBFF75CAD975EA
:0E083300CDFF75CCD9D29CC299C298D2AC220E
:1002A7000209FCE493A3F8E493A34003F68001F268
:1002B70008DFF48029E493A3F85407240CC8C33358
:1002C700C4540F4420C8834004F456800146F6DF27
:1002D700E4800B0102040810204080900B95E47E17
:1002E700019360BCA3FF543F30E509541FFEE4931C
:1002F700A360010ECF54C025E060A840B8E493A3E3
:10030700FAE493A3F8E493A3C8C582C8CAC583CA0D
:10031700F0A3C8C582C8CAC583CADFE9DEE780BEC5
:010BA4000050
:10002600E709F608DFFA8046E709F208DFFA803EBC
:1000360088828C83E709F0A3DFFA8032E309F608A9
:10004600DFFA8078E309F208DFFA807088828C8311
:10005600E309F0A3DFFA806489828A83E0A3F608C5
:10006600DFFA805889828A83E0A3F208DFFA804C9F
:1000760080D280FA80C680D4806980F28033801076
:1000860080A680EA809A80A880DA80E280CA8033DF
:1000960089828A83ECFAE493A3C8C582C8CCC58357
:1000A600CCF0A3C8C582C8CCC583CCDFE9DEE78027
:1000B6000D89828A83E493A3F608DFF9ECFAA9F0A6
:1000C600EDFB2289828A83ECFAE0A3C8C582C8CCFC
:1000D600C583CCF0A3C8C582C8CCC583CCDFEADE15
:1000E600E880DB89828A83E493A3F208DFF980CC77
:1000F60088F0EF60010E4E60C388F0ED2402B40470
:100106000050B9F582EB2402B4040050AF23234516
:06011600822390007673C5
:10011C00BB010689828A83E0225002E722BBFE02E1
:09012C00E32289828A83E4932214
:10013500BB010CE58229F582E5833AF583E022507F
:1001450006E92582F8E622BBFE06E92582F8E222C9
:0D015500E58229F582E5833AF583E49322E3
:10016200BB010989828A83F8E028F022500327F72D
:1001720022BBFE05F8E328F3228A838982F8E493FE
:02018200282231
:10018400BB010FF8E58229F582E5833AF583E0287F
:10019400F0225009C58229F8E58226F622BBFE0921
:1001A400C58229F8E22582F222F8EA2583F583E95B
:0301B4009328226B
:1001B700BB010689828A83F0225002F722BBFE0127
:0201C700F32221
:1001C900F8BB010DE58229F582E5833AF583E8F06C
:1001D900225006E92582C8F622BBFE05E92582C818
:0201E900F22200
:00000001FF
